{
  "_format": "hh-sol-artifact-1",
  "contractName": "PharmaceuticalSupplyChain",
  "sourceName": "contracts/PharmaceuticalSupplyChain.sol",
  "abi": [
    {
      "inputs": [],
      "stateMutability": "nonpayable",
      "type": "constructor"
    },
    {
      "anonymous": false,
      "inputs": [
        {
          "indexed": false,
          "internalType": "string",
          "name": "batchId",
          "type": "string"
        },
        {
          "indexed": false,
          "internalType": "address",
          "name": "distributor",
          "type": "address"
        }
      ],
      "name": "DrugDistributed",
      "type": "event"
    },
    {
      "anonymous": false,
      "inputs": [
        {
          "indexed": false,
          "internalType": "string",
          "name": "batchId",
          "type": "string"
        },
        {
          "indexed": false,
          "internalType": "string",
          "name": "name",
          "type": "string"
        },
        {
          "indexed": false,
          "internalType": "uint256",
          "name": "manufactureDate",
          "type": "uint256"
        },
        {
          "indexed": false,
          "internalType": "uint256",
          "name": "expiryDate",
          "type": "uint256"
        }
      ],
      "name": "DrugManufactured",
      "type": "event"
    },
    {
      "anonymous": false,
      "inputs": [
        {
          "indexed": false,
          "internalType": "string",
          "name": "batchId",
          "type": "string"
        },
        {
          "indexed": false,
          "internalType": "address",
          "name": "retailer",
          "type": "address"
        }
      ],
      "name": "DrugRetailed",
      "type": "event"
    },
    {
      "anonymous": false,
      "inputs": [
        {
          "indexed": false,
          "internalType": "string",
          "name": "batchId",
          "type": "string"
        },
        {
          "indexed": false,
          "internalType": "address",
          "name": "consumer",
          "type": "address"
        }
      ],
      "name": "DrugSold",
      "type": "event"
    },
    {
      "anonymous": false,
      "inputs": [
        {
          "indexed": false,
          "internalType": "string",
          "name": "batchId",
          "type": "string"
        },
        {
          "indexed": false,
          "internalType": "int256",
          "name": "temperature",
          "type": "int256"
        },
        {
          "indexed": false,
          "internalType": "address",
          "name": "reportedBy",
          "type": "address"
        }
      ],
      "name": "TemperatureViolation",
      "type": "event"
    },
    {
      "inputs": [
        {
          "internalType": "string",
          "name": "_batchId",
          "type": "string"
        }
      ],
      "name": "distributeDrug",
      "outputs": [],
      "stateMutability": "nonpayable",
      "type": "function"
    },
    {
      "inputs": [
        {
          "internalType": "address",
          "name": "",
          "type": "address"
        }
      ],
      "name": "distributors",
      "outputs": [
        {
          "internalType": "bool",
          "name": "",
          "type": "bool"
        }
      ],
      "stateMutability": "view",
      "type": "function"
    },
    {
      "inputs": [
        {
          "internalType": "string",
          "name": "",
          "type": "string"
        }
      ],
      "name": "drugs",
      "outputs": [
        {
          "internalType": "string",
          "name": "name",
          "type": "string"
        },
        {
          "internalType": "string",
          "name": "manufacturer",
          "type": "string"
        },
        {
          "internalType": "uint256",
          "name": "manufactureDate",
          "type": "uint256"
        },
        {
          "internalType": "uint256",
          "name": "expiryDate",
          "type": "uint256"
        },
        {
          "internalType": "enum PharmaceuticalSupplyChain.Status",
          "name": "status",
          "type": "uint8"
        },
        {
          "internalType": "address",
          "name": "manufacturer_id",
          "type": "address"
        },
        {
          "internalType": "address",
          "name": "distributor_id",
          "type": "address"
        },
        {
          "internalType": "address",
          "name": "retailer_id",
          "type": "address"
        },
        {
          "internalType": "address",
          "name": "consumer_id",
          "type": "address"
        },
        {
          "internalType": "bool",
          "name": "isTemperatureCompliant",
          "type": "bool"
        },
        {
          "internalType": "int256",
          "name": "minTemp",
          "type": "int256"
        },
        {
          "internalType": "int256",
          "name": "maxTemp",
          "type": "int256"
        }
      ],
      "stateMutability": "view",
      "type": "function"
    },
    {
      "inputs": [
        {
          "internalType": "string",
          "name": "_batchId",
          "type": "string"
        }
      ],
      "name": "getDrugDetails",
      "outputs": [
        {
          "internalType": "string",
          "name": "name",
          "type": "string"
        },
        {
          "internalType": "string",
          "name": "manufacturer",
          "type": "string"
        },
        {
          "internalType": "uint256",
          "name": "manufactureDate",
          "type": "uint256"
        },
        {
          "internalType": "uint256",
          "name": "expiryDate",
          "type": "uint256"
        },
        {
          "internalType": "enum PharmaceuticalSupplyChain.Status",
          "name": "status",
          "type": "uint8"
        },
        {
          "internalType": "address",
          "name": "manufacturer_id",
          "type": "address"
        },
        {
          "internalType": "address",
          "name": "distributor_id",
          "type": "address"
        },
        {
          "internalType": "address",
          "name": "retailer_id",
          "type": "address"
        },
        {
          "internalType": "address",
          "name": "consumer_id",
          "type": "address"
        },
        {
          "internalType": "bool",
          "name": "isTemperatureCompliant",
          "type": "bool"
        },
        {
          "internalType": "int256",
          "name": "minTemp",
          "type": "int256"
        },
        {
          "internalType": "int256",
          "name": "maxTemp",
          "type": "int256"
        }
      ],
      "stateMutability": "view",
      "type": "function"
    },
    {
      "inputs": [
        {
          "internalType": "string",
          "name": "_batchId",
          "type": "string"
        }
      ],
      "name": "isDrugExpired",
      "outputs": [
        {
          "internalType": "bool",
          "name": "",
          "type": "bool"
        }
      ],
      "stateMutability": "view",
      "type": "function"
    },
    {
      "inputs": [
        {
          "internalType": "string",
          "name": "_batchId",
          "type": "string"
        },
        {
          "internalType": "int256",
          "name": "_temperature",
          "type": "int256"
        }
      ],
      "name": "logTemperature",
      "outputs": [],
      "stateMutability": "nonpayable",
      "type": "function"
    },
    {
      "inputs": [
        {
          "internalType": "string",
          "name": "_batchId",
          "type": "string"
        },
        {
          "internalType": "string",
          "name": "_name",
          "type": "string"
        },
        {
          "internalType": "string",
          "name": "_manufacturer",
          "type": "string"
        },
        {
          "internalType": "uint256",
          "name": "_expiryDate",
          "type": "uint256"
        },
        {
          "internalType": "int256",
          "name": "_minTemp",
          "type": "int256"
        },
        {
          "internalType": "int256",
          "name": "_maxTemp",
          "type": "int256"
        }
      ],
      "name": "manufactureDrug",
      "outputs": [],
      "stateMutability": "nonpayable",
      "type": "function"
    },
    {
      "inputs": [
        {
          "internalType": "address",
          "name": "",
          "type": "address"
        }
      ],
      "name": "manufacturers",
      "outputs": [
        {
          "internalType": "bool",
          "name": "",
          "type": "bool"
        }
      ],
      "stateMutability": "view",
      "type": "function"
    },
    {
      "inputs": [],
      "name": "owner",
      "outputs": [
        {
          "internalType": "address",
          "name": "",
          "type": "address"
        }
      ],
      "stateMutability": "view",
      "type": "function"
    },
    {
      "inputs": [
        {
          "internalType": "address",
          "name": "_distributor",
          "type": "address"
        }
      ],
      "name": "registerDistributor",
      "outputs": [],
      "stateMutability": "nonpayable",
      "type": "function"
    },
    {
      "inputs": [
        {
          "internalType": "address",
          "name": "_manufacturer",
          "type": "address"
        }
      ],
      "name": "registerManufacturer",
      "outputs": [],
      "stateMutability": "nonpayable",
      "type": "function"
    },
    {
      "inputs": [
        {
          "internalType": "address",
          "name": "_retailer",
          "type": "address"
        }
      ],
      "name": "registerRetailer",
      "outputs": [],
      "stateMutability": "nonpayable",
      "type": "function"
    },
    {
      "inputs": [
        {
          "internalType": "string",
          "name": "_batchId",
          "type": "string"
        }
      ],
      "name": "retailDrug",
      "outputs": [],
      "stateMutability": "nonpayable",
      "type": "function"
    },
    {
      "inputs": [
        {
          "internalType": "address",
          "name": "",
          "type": "address"
        }
      ],
      "name": "retailers",
      "outputs": [
        {
          "internalType": "bool",
          "name": "",
          "type": "bool"
        }
      ],
      "stateMutability": "view",
      "type": "function"
    },
    {
      "inputs": [
        {
          "internalType": "string",
          "name": "_batchId",
          "type": "string"
        },
        {
          "internalType": "address",
          "name": "_consumer",
          "type": "address"
        }
      ],
      "name": "sellDrug",
      "outputs": [],
      "stateMutability": "nonpayable",
      "type": "function"
    },
    {
      "inputs": [
        {
          "internalType": "string",
          "name": "_batchId",
          "type": "string"
        }
      ],
      "name": "verifyDrug",
      "outputs": [
        {
          "internalType": "bool",
          "name": "",
          "type": "bool"
        }
      ],
      "stateMutability": "view",
      "type": "function"
    }
  ],
  "bytecode": "0x608060405234801561001057600080fd5b50600480546001600160a01b03191633179055611914806100326000396000f3fe608060405234801561001057600080fd5b50600436106101005760003560e01c80639a268f3511610097578063cc64278411610066578063cc64278414610250578063d181122314610273578063ea51999f14610286578063f659b68e1461029957600080fd5b80639a268f35146101f45780639adce32b14610217578063a83006da1461022a578063b009493d1461023d57600080fd5b80636848f019116100d35780636848f019146101805780636b5eb09c146101935780637ea36fde146101b65780638da5cb5b146101c957600080fd5b80632b18b5221461010557806331ab05181461011a5780633b7b0a741461012d578063567e963614610155575b600080fd5b61011861011336600461135c565b6102ac565b005b6101186101283660046113b5565b6104c6565b61014061013b36600461135c565b610514565b60405190151581526020015b60405180910390f35b61016861016336600461135c565b61054b565b60405161014c9c9b9a9998979695949392919061143d565b61014061018e36600461135c565b610848565b6101406101a13660046113b5565b60016020526000908152604090205460ff1681565b6101186101c43660046114ef565b6108bf565b6004546101dc906001600160a01b031681565b6040516001600160a01b03909116815260200161014c565b6101406102023660046113b5565b60036020526000908152604090205460ff1681565b6101186102253660046113b5565b610995565b6101186102383660046113b5565b6109e6565b61016861024b36600461135c565b610a34565b61014061025e3660046113b5565b60026020526000908152604090205460ff1681565b610118610281366004611534565b610bc4565b610118610294366004611582565b610e1f565b6101186102a736600461135c565b611104565b3360009081526002602052604090205460ff1661032c5760405162461bcd60e51b815260206004820152603360248201527f4f6e6c792072656769737465726564206469737472696275746f72732063616e6044820152721031b0b636103a3434b990333ab731ba34b7b760691b60648201526084015b60405180910390fd5b6000808260405161033d9190611626565b908152604051908190036020019020805461035790611642565b9050116103765760405162461bcd60e51b81526004016103239061167c565b600080826040516103879190611626565b9081526040519081900360200190206004015460ff1660038111156103ae576103ae611427565b146104055760405162461bcd60e51b815260206004820152602160248201527f44727567206973206e6f7420696e206d616e75666163747572656420737461746044820152606560f81b6064820152608401610323565b60016000826040516104179190611626565b908152604051908190036020019020600401805460ff1916600183600381111561044357610443611427565b0217905550336000826040516104599190611626565b90815260405190819003602001812060050180546001600160a01b03939093166001600160a01b0319909316929092179091557fe18838eb099b192370eeab043c1513b93a4a6a16b9ce8c80fae2d7c72c4a5c4f906104bb90839033906116a9565b60405180910390a150565b6004546001600160a01b031633146104f05760405162461bcd60e51b8152600401610323906116d3565b6001600160a01b03166000908152600260205260409020805460ff19166001179055565b6000806000836040516105279190611626565b908152604051908190036020019020805461054190611642565b9050119050919050565b6060806000806000806000806000806000806000808e60405161056e9190611626565b90815260200160405180910390206040518061018001604052908160008201805461059890611642565b80601f01602080910402602001604051908101604052809291908181526020018280546105c490611642565b80156106115780601f106105e657610100808354040283529160200191610611565b820191906000526020600020905b8154815290600101906020018083116105f457829003601f168201915b5050505050815260200160018201805461062a90611642565b80601f016020809104026020016040519081016040528092919081815260200182805461065690611642565b80156106a35780601f10610678576101008083540402835291602001916106a3565b820191906000526020600020905b81548152906001019060200180831161068657829003601f168201915b5050509183525050600282015460208201526003808301546040830152600483015460609092019160ff16908111156106de576106de611427565b60038111156106ef576106ef611427565b81526020016004820160019054906101000a90046001600160a01b03166001600160a01b03166001600160a01b031681526020016005820160009054906101000a90046001600160a01b03166001600160a01b03166001600160a01b031681526020016006820160009054906101000a90046001600160a01b03166001600160a01b03166001600160a01b031681526020016007820160009054906101000a90046001600160a01b03166001600160a01b03166001600160a01b031681526020016007820160149054906101000a900460ff16151515158152602001600882015481526020016009820154815250509050806000015181602001518260400151836060015184608001518560a001518660c001518760e001518861010001518961012001518a61014001518b61016001519c509c509c509c509c509c509c509c509c509c509c509c505091939597999b5091939597999b565b60008060008360405161085b9190611626565b908152604051908190036020019020805461087590611642565b9050116108945760405162461bcd60e51b81526004016103239061167c565b6000826040516108a49190611626565b90815260200160405180910390206003015442119050919050565b600080836040516108d09190611626565b90815260405190819003602001902080546108ea90611642565b9050116109095760405162461bcd60e51b81526004016103239061167c565b6000808360405161091a9190611626565b90815260200160405180910390209050806008015482128061093f5750806009015482135b156109905760078101805460ff60a01b191690556040517fa153f0292fa0af651e4d86d7987035f9f42ad52a01a1f54556b71459f417749d9061098790859085903390611714565b60405180910390a15b505050565b6004546001600160a01b031633146109bf5760405162461bcd60e51b8152600401610323906116d3565b6001600160a01b03166000908152600160208190526040909120805460ff19169091179055565b6004546001600160a01b03163314610a105760405162461bcd60e51b8152600401610323906116d3565b6001600160a01b03166000908152600360205260409020805460ff19166001179055565b8051602081830181018051600082529282019190930120915280548190610a5a90611642565b80601f0160208091040260200160405190810160405280929190818152602001828054610a8690611642565b8015610ad35780601f10610aa857610100808354040283529160200191610ad3565b820191906000526020600020905b815481529060010190602001808311610ab657829003601f168201915b505050505090806001018054610ae890611642565b80601f0160208091040260200160405190810160405280929190818152602001828054610b1490611642565b8015610b615780601f10610b3657610100808354040283529160200191610b61565b820191906000526020600020905b815481529060010190602001808311610b4457829003601f168201915b50505060028401546003850154600486015460058701546006880154600789015460088a01546009909a01549899959894975060ff80851697506001600160a01b036101009095048516969385169592851694821693600160a01b90920416918c565b3360009081526003602052604090205460ff16610bf35760405162461bcd60e51b815260040161032390611747565b60008083604051610c049190611626565b9081526040519081900360200190208054610c1e90611642565b905011610c3d5760405162461bcd60e51b81526004016103239061167c565b6002600083604051610c4f9190611626565b9081526040519081900360200190206004015460ff166003811115610c7657610c76611427565b14610cc35760405162461bcd60e51b815260206004820152601d60248201527f44727567206973206e6f7420696e2072657461696c65642073746174650000006044820152606401610323565b336001600160a01b0316600083604051610cdd9190611626565b908152604051908190036020019020600601546001600160a01b031614610d5d5760405162461bcd60e51b815260206004820152602e60248201527f4f6e6c79207468652072657461696c65722077686f206861732074686520647260448201526d1d59c818d85b881cd95b1b081a5d60921b6064820152608401610323565b6003600083604051610d6f9190611626565b908152604051908190036020019020600401805460ff19166001836003811115610d9b57610d9b611427565b021790555080600083604051610db19190611626565b90815260405190819003602001812060070180546001600160a01b03939093166001600160a01b0319909316929092179091557fd1f19177c79a48f80c7f1f05e23a1d231cbf3cb51fa4511bd15d606c2730071090610e1390849084906116a9565b60405180910390a15050565b3360009081526001602052604090205460ff16610e9b5760405162461bcd60e51b815260206004820152603460248201527f4f6e6c792072656769737465726564206d616e75666163747572657273206361604482015273371031b0b636103a3434b990333ab731ba34b7b760611b6064820152608401610323565b600086604051610eab9190611626565b9081526040519081900360200190208054610ec590611642565b159050610f235760405162461bcd60e51b815260206004820152602660248201527f447275672077697468207468697320626174636820494420616c72656164792060448201526565786973747360d01b6064820152608401610323565b60405180610180016040528086815260200185815260200142815260200184815260200160006003811115610f5a57610f5a611427565b8152336020820152600060408083018290526060830182905260808301829052600160a084015260c0830186905260e09092018490529051610f9d908990611626565b90815260405190819003602001902081518190610fba90826117e5565b5060208201516001820190610fcf90826117e5565b50604082015181600201556060820151816003015560808201518160040160006101000a81548160ff0219169083600381111561100e5761100e611427565b021790555060a08201516004820180546001600160a01b03928316610100908102610100600160a81b03199092169190911790915560c08401516005840180549184166001600160a01b031992831617905560e0850151600685018054918516919092161790558301516007830180546101208601511515600160a01b026001600160a81b031990911692909316919091179190911790556101408201516008820155610160909101516009909101556040517f5073b4421bbc4a0f268695da518403aa603502fec1f978a4a00110b21ce7863e906110f49088908890429088906118a5565b60405180910390a1505050505050565b3360009081526003602052604090205460ff166111335760405162461bcd60e51b815260040161032390611747565b600080826040516111449190611626565b908152604051908190036020019020805461115e90611642565b90501161117d5760405162461bcd60e51b81526004016103239061167c565b600160008260405161118f9190611626565b9081526040519081900360200190206004015460ff1660038111156111b6576111b6611427565b146112035760405162461bcd60e51b815260206004820181905260248201527f44727567206973206e6f7420696e2064697374726962757465642073746174656044820152606401610323565b60026000826040516112159190611626565b908152604051908190036020019020600401805460ff1916600183600381111561124157611241611427565b0217905550336000826040516112579190611626565b90815260405190819003602001812060060180546001600160a01b03939093166001600160a01b0319909316929092179091557ffca8ee06970dbb547f040945bb9b32efb1355177aa1692d03d2ebb5a0f76964e906104bb90839033906116a9565b634e487b7160e01b600052604160045260246000fd5b600082601f8301126112e057600080fd5b813567ffffffffffffffff808211156112fb576112fb6112b9565b604051601f8301601f19908116603f01168101908282118183101715611323576113236112b9565b8160405283815286602085880101111561133c57600080fd5b836020870160208301376000602085830101528094505050505092915050565b60006020828403121561136e57600080fd5b813567ffffffffffffffff81111561138557600080fd5b611391848285016112cf565b949350505050565b80356001600160a01b03811681146113b057600080fd5b919050565b6000602082840312156113c757600080fd5b6113d082611399565b9392505050565b60005b838110156113f25781810151838201526020016113da565b50506000910152565b600081518084526114138160208601602086016113d7565b601f01601f19169290920160200192915050565b634e487b7160e01b600052602160045260246000fd5b6101808152600061145261018083018f6113fb565b8281036020840152611464818f6113fb565b9150508b60408301528a606083015260048a1061149157634e487b7160e01b600052602160045260246000fd5b8960808301526114ac60a083018a6001600160a01b03169052565b6001600160a01b0397881660c083015295871660e08201529390951661010084015290151561012083015261014082015261016001919091529695505050505050565b6000806040838503121561150257600080fd5b823567ffffffffffffffff81111561151957600080fd5b611525858286016112cf565b95602094909401359450505050565b6000806040838503121561154757600080fd5b823567ffffffffffffffff81111561155e57600080fd5b61156a858286016112cf565b92505061157960208401611399565b90509250929050565b60008060008060008060c0878903121561159b57600080fd5b863567ffffffffffffffff808211156115b357600080fd5b6115bf8a838b016112cf565b975060208901359150808211156115d557600080fd5b6115e18a838b016112cf565b965060408901359150808211156115f757600080fd5b5061160489828a016112cf565b945050606087013592506080870135915060a087013590509295509295509295565b600082516116388184602087016113d7565b9190910192915050565b600181811c9082168061165657607f821691505b60208210810361167657634e487b7160e01b600052602260045260246000fd5b50919050565b602080825260139082015272111c9d59c8191bd95cc81b9bdd08195e1a5cdd606a1b604082015260600190565b6040815260006116bc60408301856113fb565b905060018060a01b03831660208301529392505050565b60208082526021908201527f4f6e6c79206f776e65722063616e2063616c6c20746869732066756e6374696f6040820152603760f91b606082015260800190565b60608152600061172760608301866113fb565b6020830194909452506001600160a01b0391909116604090910152919050565b60208082526030908201527f4f6e6c7920726567697374657265642072657461696c6572732063616e20636160408201526f3636103a3434b990333ab731ba34b7b760811b606082015260800190565b601f82111561099057600081815260208120601f850160051c810160208610156117be5750805b601f850160051c820191505b818110156117dd578281556001016117ca565b505050505050565b815167ffffffffffffffff8111156117ff576117ff6112b9565b6118138161180d8454611642565b84611797565b602080601f83116001811461184857600084156118305750858301515b600019600386901b1c1916600185901b1785556117dd565b600085815260208120601f198616915b8281101561187757888601518255948401946001909101908401611858565b50858210156118955787850151600019600388901b60f8161c191681555b5050505050600190811b01905550565b6080815260006118b860808301876113fb565b82810360208401526118ca81876113fb565b60408401959095525050606001529291505056fea2646970667358221220380b925eae45737e92c12d66a4d59ce2105469e10ad4082e27d194e3f14cf32564736f6c63430008110033",
  "linkReferences": {},
  "deployedLinkReferences": {}
}