{
  "_format": "hh-sol-artifact-1",
  "contractName": "PharmaceuticalSupplyChain",
  "sourceName": "contracts/PharmaceuticalSupplyChain.sol",
  "abi": [
    {
      "inputs": [],
      "stateMutability": "nonpayable",
      "type": "constructor"
    },
    {
      "anonymous": false,
      "inputs": [
        {
          "indexed": false,
          "internalType": "string",
          "name": "batchId",
          "type": "string"
        },
        {
          "indexed": false,
          "internalType": "address",
          "name": "distributor",
          "type": "address"
        }
      ],
      "name": "DrugDistributed",
      "type": "event"
    },
    {
      "anonymous": false,
      "inputs": [
        {
          "indexed": false,
          "internalType": "string",
          "name": "batchId",
          "type": "string"
        },
        {
          "indexed": false,
          "internalType": "string",
          "name": "name",
          "type": "string"
        },
        {
          "indexed": false,
          "internalType": "uint256",
          "name": "manufactureDate",
          "type": "uint256"
        },
        {
          "indexed": false,
          "internalType": "uint256",
          "name": "expiryDate",
          "type": "uint256"
        }
      ],
      "name": "DrugManufactured",
      "type": "event"
    },
    {
      "anonymous": false,
      "inputs": [
        {
          "indexed": false,
          "internalType": "string",
          "name": "batchId",
          "type": "string"
        },
        {
          "indexed": false,
          "internalType": "address",
          "name": "retailer",
          "type": "address"
        }
      ],
      "name": "DrugRetailed",
      "type": "event"
    },
    {
      "anonymous": false,
      "inputs": [
        {
          "indexed": false,
          "internalType": "string",
          "name": "batchId",
          "type": "string"
        },
        {
          "indexed": false,
          "internalType": "address",
          "name": "consumer",
          "type": "address"
        }
      ],
      "name": "DrugSold",
      "type": "event"
    },
    {
      "inputs": [
        {
          "internalType": "string",
          "name": "_batchId",
          "type": "string"
        }
      ],
      "name": "distributeDrug",
      "outputs": [],
      "stateMutability": "nonpayable",
      "type": "function"
    },
    {
      "inputs": [
        {
          "internalType": "address",
          "name": "",
          "type": "address"
        }
      ],
      "name": "distributors",
      "outputs": [
        {
          "internalType": "bool",
          "name": "",
          "type": "bool"
        }
      ],
      "stateMutability": "view",
      "type": "function"
    },
    {
      "inputs": [
        {
          "internalType": "string",
          "name": "",
          "type": "string"
        }
      ],
      "name": "drugs",
      "outputs": [
        {
          "internalType": "string",
          "name": "name",
          "type": "string"
        },
        {
          "internalType": "string",
          "name": "manufacturer",
          "type": "string"
        },
        {
          "internalType": "uint256",
          "name": "manufactureDate",
          "type": "uint256"
        },
        {
          "internalType": "uint256",
          "name": "expiryDate",
          "type": "uint256"
        },
        {
          "internalType": "enum PharmaceuticalSupplyChain.Status",
          "name": "status",
          "type": "uint8"
        },
        {
          "internalType": "address",
          "name": "manufacturer_id",
          "type": "address"
        },
        {
          "internalType": "address",
          "name": "distributor_id",
          "type": "address"
        },
        {
          "internalType": "address",
          "name": "retailer_id",
          "type": "address"
        },
        {
          "internalType": "address",
          "name": "consumer_id",
          "type": "address"
        }
      ],
      "stateMutability": "view",
      "type": "function"
    },
    {
      "inputs": [
        {
          "internalType": "string",
          "name": "_batchId",
          "type": "string"
        }
      ],
      "name": "getDrugDetails",
      "outputs": [
        {
          "internalType": "string",
          "name": "name",
          "type": "string"
        },
        {
          "internalType": "string",
          "name": "manufacturer",
          "type": "string"
        },
        {
          "internalType": "uint256",
          "name": "manufactureDate",
          "type": "uint256"
        },
        {
          "internalType": "uint256",
          "name": "expiryDate",
          "type": "uint256"
        },
        {
          "internalType": "enum PharmaceuticalSupplyChain.Status",
          "name": "status",
          "type": "uint8"
        },
        {
          "internalType": "address",
          "name": "manufacturer_id",
          "type": "address"
        },
        {
          "internalType": "address",
          "name": "distributor_id",
          "type": "address"
        },
        {
          "internalType": "address",
          "name": "retailer_id",
          "type": "address"
        },
        {
          "internalType": "address",
          "name": "consumer_id",
          "type": "address"
        }
      ],
      "stateMutability": "view",
      "type": "function"
    },
    {
      "inputs": [
        {
          "internalType": "string",
          "name": "_batchId",
          "type": "string"
        }
      ],
      "name": "isDrugExpired",
      "outputs": [
        {
          "internalType": "bool",
          "name": "",
          "type": "bool"
        }
      ],
      "stateMutability": "view",
      "type": "function"
    },
    {
      "inputs": [
        {
          "internalType": "string",
          "name": "_batchId",
          "type": "string"
        },
        {
          "internalType": "string",
          "name": "_name",
          "type": "string"
        },
        {
          "internalType": "string",
          "name": "_manufacturer",
          "type": "string"
        },
        {
          "internalType": "uint256",
          "name": "_expiryDate",
          "type": "uint256"
        }
      ],
      "name": "manufactureDrug",
      "outputs": [],
      "stateMutability": "nonpayable",
      "type": "function"
    },
    {
      "inputs": [
        {
          "internalType": "address",
          "name": "",
          "type": "address"
        }
      ],
      "name": "manufacturers",
      "outputs": [
        {
          "internalType": "bool",
          "name": "",
          "type": "bool"
        }
      ],
      "stateMutability": "view",
      "type": "function"
    },
    {
      "inputs": [],
      "name": "owner",
      "outputs": [
        {
          "internalType": "address",
          "name": "",
          "type": "address"
        }
      ],
      "stateMutability": "view",
      "type": "function"
    },
    {
      "inputs": [
        {
          "internalType": "address",
          "name": "_distributor",
          "type": "address"
        }
      ],
      "name": "registerDistributor",
      "outputs": [],
      "stateMutability": "nonpayable",
      "type": "function"
    },
    {
      "inputs": [
        {
          "internalType": "address",
          "name": "_manufacturer",
          "type": "address"
        }
      ],
      "name": "registerManufacturer",
      "outputs": [],
      "stateMutability": "nonpayable",
      "type": "function"
    },
    {
      "inputs": [
        {
          "internalType": "address",
          "name": "_retailer",
          "type": "address"
        }
      ],
      "name": "registerRetailer",
      "outputs": [],
      "stateMutability": "nonpayable",
      "type": "function"
    },
    {
      "inputs": [
        {
          "internalType": "string",
          "name": "_batchId",
          "type": "string"
        }
      ],
      "name": "retailDrug",
      "outputs": [],
      "stateMutability": "nonpayable",
      "type": "function"
    },
    {
      "inputs": [
        {
          "internalType": "address",
          "name": "",
          "type": "address"
        }
      ],
      "name": "retailers",
      "outputs": [
        {
          "internalType": "bool",
          "name": "",
          "type": "bool"
        }
      ],
      "stateMutability": "view",
      "type": "function"
    },
    {
      "inputs": [
        {
          "internalType": "string",
          "name": "_batchId",
          "type": "string"
        },
        {
          "internalType": "address",
          "name": "_consumer",
          "type": "address"
        }
      ],
      "name": "sellDrug",
      "outputs": [],
      "stateMutability": "nonpayable",
      "type": "function"
    },
    {
      "inputs": [
        {
          "internalType": "string",
          "name": "_batchId",
          "type": "string"
        }
      ],
      "name": "verifyDrug",
      "outputs": [
        {
          "internalType": "bool",
          "name": "",
          "type": "bool"
        }
      ],
      "stateMutability": "view",
      "type": "function"
    }
  ],
  "bytecode": "0x608060405234801561001057600080fd5b50600480546001600160a01b031916331790556116be806100326000396000f3fe608060405234801561001057600080fd5b50600436106100f55760003560e01c80638da5cb5b11610097578063b009493d11610066578063b009493d1461022f578063cc64278414610242578063d181122314610265578063f659b68e1461027857600080fd5b80638da5cb5b146101bb5780639a268f35146101e65780639adce32b14610209578063a83006da1461021c57600080fd5b80633b7b0a74116100d35780633b7b0a7414610135578063567e96361461015d5780636848f019146101855780636b5eb09c1461019857600080fd5b806326c5521d146100fa5780632b18b5221461010f57806331ab051814610122575b600080fd5b61010d6101083660046111b4565b61028b565b005b61010d61011d366004611244565b610528565b61010d61013036600461129d565b61073d565b610148610143366004611244565b61078b565b60405190151581526020015b60405180910390f35b61017061016b366004611244565b6107c2565b60405161015499989796959493929190611325565b610148610193366004611244565b610a72565b6101486101a636600461129d565b60016020526000908152604090205460ff1681565b6004546101ce906001600160a01b031681565b6040516001600160a01b039091168152602001610154565b6101486101f436600461129d565b60036020526000908152604090205460ff1681565b61010d61021736600461129d565b610ae9565b61010d61022a36600461129d565b610b3a565b61017061023d366004611244565b610b88565b61014861025036600461129d565b60026020526000908152604090205460ff1681565b61010d6102733660046113b4565b610d01565b61010d610286366004611244565b610f5c565b3360009081526001602052604090205460ff1661030c5760405162461bcd60e51b815260206004820152603460248201527f4f6e6c792072656769737465726564206d616e75666163747572657273206361604482015273371031b0b636103a3434b990333ab731ba34b7b760611b60648201526084015b60405180910390fd5b60008460405161031c9190611402565b90815260405190819003602001902080546103369061141e565b1590506103945760405162461bcd60e51b815260206004820152602660248201527f447275672077697468207468697320626174636820494420616c72656164792060448201526565786973747360d01b6064820152608401610303565b604051806101200160405280848152602001838152602001428152602001828152602001600060038111156103cb576103cb61130f565b81523360208201526000604080830182905260608301829052608090920181905290516103f9908790611402565b9081526040519081900360200190208151819061041690826114a7565b506020820151600182019061042b90826114a7565b50604082015181600201556060820151816003015560808201518160040160006101000a81548160ff0219169083600381111561046a5761046a61130f565b021790555060a0820151600482018054610100600160a81b0319166101006001600160a01b0393841681029190911790915560c08401516005840180546001600160a01b031990811692851692909217905560e085015160068501805483169185169190911790559301516007909201805490931691161790556040517f5073b4421bbc4a0f268695da518403aa603502fec1f978a4a00110b21ce7863e9061051a908690869042908690611567565b60405180910390a150505050565b3360009081526002602052604090205460ff166105a35760405162461bcd60e51b815260206004820152603360248201527f4f6e6c792072656769737465726564206469737472696275746f72732063616e6044820152721031b0b636103a3434b990333ab731ba34b7b760691b6064820152608401610303565b600080826040516105b49190611402565b90815260405190819003602001902080546105ce9061141e565b9050116105ed5760405162461bcd60e51b8152600401610303906115a0565b600080826040516105fe9190611402565b9081526040519081900360200190206004015460ff1660038111156106255761062561130f565b1461067c5760405162461bcd60e51b815260206004820152602160248201527f44727567206973206e6f7420696e206d616e75666163747572656420737461746044820152606560f81b6064820152608401610303565b600160008260405161068e9190611402565b908152604051908190036020019020600401805460ff191660018360038111156106ba576106ba61130f565b0217905550336000826040516106d09190611402565b90815260405190819003602001812060050180546001600160a01b03939093166001600160a01b0319909316929092179091557fe18838eb099b192370eeab043c1513b93a4a6a16b9ce8c80fae2d7c72c4a5c4f9061073290839033906115cd565b60405180910390a150565b6004546001600160a01b031633146107675760405162461bcd60e51b8152600401610303906115f7565b6001600160a01b03166000908152600260205260409020805460ff19166001179055565b60008060008360405161079e9190611402565b90815260405190819003602001902080546107b89061141e565b9050119050919050565b60608060008060008060008060008060008b6040516107e19190611402565b90815260200160405180910390206040518061012001604052908160008201805461080b9061141e565b80601f01602080910402602001604051908101604052809291908181526020018280546108379061141e565b80156108845780601f1061085957610100808354040283529160200191610884565b820191906000526020600020905b81548152906001019060200180831161086757829003601f168201915b5050505050815260200160018201805461089d9061141e565b80601f01602080910402602001604051908101604052809291908181526020018280546108c99061141e565b80156109165780601f106108eb57610100808354040283529160200191610916565b820191906000526020600020905b8154815290600101906020018083116108f957829003601f168201915b5050509183525050600282015460208201526003808301546040830152600483015460609092019160ff16908111156109515761095161130f565b60038111156109625761096261130f565b81526020016004820160019054906101000a90046001600160a01b03166001600160a01b03166001600160a01b031681526020016005820160009054906101000a90046001600160a01b03166001600160a01b03166001600160a01b031681526020016006820160009054906101000a90046001600160a01b03166001600160a01b03166001600160a01b031681526020016007820160009054906101000a90046001600160a01b03166001600160a01b03166001600160a01b0316815250509050806000015181602001518260400151836060015184608001518560a001518660c001518760e00151886101000151995099509950995099509950995099509950509193959799909294969850565b600080600083604051610a859190611402565b9081526040519081900360200190208054610a9f9061141e565b905011610abe5760405162461bcd60e51b8152600401610303906115a0565b600082604051610ace9190611402565b90815260200160405180910390206003015442119050919050565b6004546001600160a01b03163314610b135760405162461bcd60e51b8152600401610303906115f7565b6001600160a01b03166000908152600160208190526040909120805460ff19169091179055565b6004546001600160a01b03163314610b645760405162461bcd60e51b8152600401610303906115f7565b6001600160a01b03166000908152600360205260409020805460ff19166001179055565b8051602081830181018051600082529282019190930120915280548190610bae9061141e565b80601f0160208091040260200160405190810160405280929190818152602001828054610bda9061141e565b8015610c275780601f10610bfc57610100808354040283529160200191610c27565b820191906000526020600020905b815481529060010190602001808311610c0a57829003601f168201915b505050505090806001018054610c3c9061141e565b80601f0160208091040260200160405190810160405280929190818152602001828054610c689061141e565b8015610cb55780601f10610c8a57610100808354040283529160200191610cb5565b820191906000526020600020905b815481529060010190602001808311610c9857829003601f168201915b505050600284015460038501546004860154600587015460068801546007909801549697939692955060ff821694506001600160a01b0361010090920482169390821692908216911689565b3360009081526003602052604090205460ff16610d305760405162461bcd60e51b815260040161030390611638565b60008083604051610d419190611402565b9081526040519081900360200190208054610d5b9061141e565b905011610d7a5760405162461bcd60e51b8152600401610303906115a0565b6002600083604051610d8c9190611402565b9081526040519081900360200190206004015460ff166003811115610db357610db361130f565b14610e005760405162461bcd60e51b815260206004820152601d60248201527f44727567206973206e6f7420696e2072657461696c65642073746174650000006044820152606401610303565b336001600160a01b0316600083604051610e1a9190611402565b908152604051908190036020019020600601546001600160a01b031614610e9a5760405162461bcd60e51b815260206004820152602e60248201527f4f6e6c79207468652072657461696c65722077686f206861732074686520647260448201526d1d59c818d85b881cd95b1b081a5d60921b6064820152608401610303565b6003600083604051610eac9190611402565b908152604051908190036020019020600401805460ff19166001836003811115610ed857610ed861130f565b021790555080600083604051610eee9190611402565b90815260405190819003602001812060070180546001600160a01b03939093166001600160a01b0319909316929092179091557fd1f19177c79a48f80c7f1f05e23a1d231cbf3cb51fa4511bd15d606c2730071090610f5090849084906115cd565b60405180910390a15050565b3360009081526003602052604090205460ff16610f8b5760405162461bcd60e51b815260040161030390611638565b60008082604051610f9c9190611402565b9081526040519081900360200190208054610fb69061141e565b905011610fd55760405162461bcd60e51b8152600401610303906115a0565b6001600082604051610fe79190611402565b9081526040519081900360200190206004015460ff16600381111561100e5761100e61130f565b1461105b5760405162461bcd60e51b815260206004820181905260248201527f44727567206973206e6f7420696e2064697374726962757465642073746174656044820152606401610303565b600260008260405161106d9190611402565b908152604051908190036020019020600401805460ff191660018360038111156110995761109961130f565b0217905550336000826040516110af9190611402565b90815260405190819003602001812060060180546001600160a01b03939093166001600160a01b0319909316929092179091557ffca8ee06970dbb547f040945bb9b32efb1355177aa1692d03d2ebb5a0f76964e9061073290839033906115cd565b634e487b7160e01b600052604160045260246000fd5b600082601f83011261113857600080fd5b813567ffffffffffffffff8082111561115357611153611111565b604051601f8301601f19908116603f0116810190828211818310171561117b5761117b611111565b8160405283815286602085880101111561119457600080fd5b836020870160208301376000602085830101528094505050505092915050565b600080600080608085870312156111ca57600080fd5b843567ffffffffffffffff808211156111e257600080fd5b6111ee88838901611127565b9550602087013591508082111561120457600080fd5b61121088838901611127565b9450604087013591508082111561122657600080fd5b5061123387828801611127565b949793965093946060013593505050565b60006020828403121561125657600080fd5b813567ffffffffffffffff81111561126d57600080fd5b61127984828501611127565b949350505050565b80356001600160a01b038116811461129857600080fd5b919050565b6000602082840312156112af57600080fd5b6112b882611281565b9392505050565b60005b838110156112da5781810151838201526020016112c2565b50506000910152565b600081518084526112fb8160208601602086016112bf565b601f01601f19169290920160200192915050565b634e487b7160e01b600052602160045260246000fd5b60006101208083526113398184018d6112e3565b9050828103602084015261134d818c6112e3565b9150508860408301528760608301526004871061137a57634e487b7160e01b600052602160045260246000fd5b60808201969096526001600160a01b0394851660a082015292841660c084015290831660e083015290911661010090910152949350505050565b600080604083850312156113c757600080fd5b823567ffffffffffffffff8111156113de57600080fd5b6113ea85828601611127565b9250506113f960208401611281565b90509250929050565b600082516114148184602087016112bf565b9190910192915050565b600181811c9082168061143257607f821691505b60208210810361145257634e487b7160e01b600052602260045260246000fd5b50919050565b601f8211156114a257600081815260208120601f850160051c8101602086101561147f5750805b601f850160051c820191505b8181101561149e5782815560010161148b565b5050505b505050565b815167ffffffffffffffff8111156114c1576114c1611111565b6114d5816114cf845461141e565b84611458565b602080601f83116001811461150a57600084156114f25750858301515b600019600386901b1c1916600185901b17855561149e565b600085815260208120601f198616915b828110156115395788860151825594840194600190910190840161151a565b50858210156115575787850151600019600388901b60f8161c191681555b5050505050600190811b01905550565b60808152600061157a60808301876112e3565b828103602084015261158c81876112e3565b604084019590955250506060015292915050565b602080825260139082015272111c9d59c8191bd95cc81b9bdd08195e1a5cdd606a1b604082015260600190565b6040815260006115e060408301856112e3565b905060018060a01b03831660208301529392505050565b60208082526021908201527f4f6e6c79206f776e65722063616e2063616c6c20746869732066756e6374696f6040820152603760f91b606082015260800190565b60208082526030908201527f4f6e6c7920726567697374657265642072657461696c6572732063616e20636160408201526f3636103a3434b990333ab731ba34b7b760811b60608201526080019056fea2646970667358221220066011b1bdcd936821c7108511631d845129ae3c235ca384646aa66c1361d7eb64736f6c63430008110033",
  "linkReferences": {},
  "deployedLinkReferences": {}
}